{
  "_format": "hh-sol-artifact-1",
  "contractName": "AutomaticallyUpdateMode",
  "sourceName": "contracts/AutomaticallyUpdateMode.sol",
  "abi": [
    {
      "inputs": [
        {
          "internalType": "address",
          "name": "_zodAddress",
          "type": "address"
        }
      ],
      "stateMutability": "nonpayable",
      "type": "constructor"
    },
    {
      "inputs": [
        {
          "internalType": "bytes",
          "name": "",
          "type": "bytes"
        }
      ],
      "name": "checkUpkeep",
      "outputs": [
        {
          "internalType": "bool",
          "name": "upkeepNeeded",
          "type": "bool"
        },
        {
          "internalType": "bytes",
          "name": "performData",
          "type": "bytes"
        }
      ],
      "stateMutability": "view",
      "type": "function"
    },
    {
      "inputs": [],
      "name": "counter",
      "outputs": [
        {
          "internalType": "uint256",
          "name": "",
          "type": "uint256"
        }
      ],
      "stateMutability": "view",
      "type": "function"
    },
    {
      "inputs": [],
      "name": "interval",
      "outputs": [
        {
          "internalType": "uint256",
          "name": "",
          "type": "uint256"
        }
      ],
      "stateMutability": "view",
      "type": "function"
    },
    {
      "inputs": [],
      "name": "lastTimeStamp",
      "outputs": [
        {
          "internalType": "uint256",
          "name": "",
          "type": "uint256"
        }
      ],
      "stateMutability": "view",
      "type": "function"
    },
    {
      "inputs": [],
      "name": "nftModel",
      "outputs": [
        {
          "internalType": "contract ChineseZodiac",
          "name": "",
          "type": "address"
        }
      ],
      "stateMutability": "view",
      "type": "function"
    },
    {
      "inputs": [
        {
          "internalType": "bytes",
          "name": "",
          "type": "bytes"
        }
      ],
      "name": "performUpkeep",
      "outputs": [],
      "stateMutability": "nonpayable",
      "type": "function"
    }
  ],
  "bytecode": "0x60a060405234801561001057600080fd5b50604051610734380380610734833981810160405281019061003291906100ed565b610e10608081815250504260018190555080600260006101000a81548173ffffffffffffffffffffffffffffffffffffffff021916908373ffffffffffffffffffffffffffffffffffffffff1602179055505061011a565b600080fd5b600073ffffffffffffffffffffffffffffffffffffffff82169050919050565b60006100ba8261008f565b9050919050565b6100ca816100af565b81146100d557600080fd5b50565b6000815190506100e7816100c1565b92915050565b6000602082840312156101035761010261008a565b5b6000610111848285016100d8565b91505092915050565b6080516105f16101436000396000818161015a0152818161023e015261028901526105f16000f3fe608060405234801561001057600080fd5b50600436106100625760003560e01c80633f3b3b271461006757806342fedfde146100855780634585e33b146100a357806361bc221a146100bf5780636e04ff0d146100dd578063947a36fb1461010e575b600080fd5b61006f61012c565b60405161007c91906102c4565b60405180910390f35b61008d610132565b60405161009a919061035e565b60405180910390f35b6100bd60048036038101906100b891906103e8565b610158565b005b6100c7610232565b6040516100d491906102c4565b60405180910390f35b6100f760048036038101906100f291906103e8565b610238565b6040516101059291906104e0565b60405180910390f35b610116610287565b60405161012391906102c4565b60405180910390f35b60015481565b600260009054906101000a900473ffffffffffffffffffffffffffffffffffffffff1681565b7f000000000000000000000000000000000000000000000000000000000000000060015442610187919061053f565b111561022e5742600181905550600260009054906101000a900473ffffffffffffffffffffffffffffffffffffffff1673ffffffffffffffffffffffffffffffffffffffff166355faeef46040518163ffffffff1660e01b8152600401600060405180830381600087803b1580156101fe57600080fd5b505af1158015610212573d6000803e3d6000fd5b5050505060008081548092919061022890610573565b91905055505b5050565b60005481565b600060607f00000000000000000000000000000000000000000000000000000000000000006001544261026b919061053f565b1191506040518060200160405280600081525090509250929050565b7f000000000000000000000000000000000000000000000000000000000000000081565b6000819050919050565b6102be816102ab565b82525050565b60006020820190506102d960008301846102b5565b92915050565b600073ffffffffffffffffffffffffffffffffffffffff82169050919050565b6000819050919050565b600061032461031f61031a846102df565b6102ff565b6102df565b9050919050565b600061033682610309565b9050919050565b60006103488261032b565b9050919050565b6103588161033d565b82525050565b6000602082019050610373600083018461034f565b92915050565b600080fd5b600080fd5b600080fd5b600080fd5b600080fd5b60008083601f8401126103a8576103a7610383565b5b8235905067ffffffffffffffff8111156103c5576103c4610388565b5b6020830191508360018202830111156103e1576103e061038d565b5b9250929050565b600080602083850312156103ff576103fe610379565b5b600083013567ffffffffffffffff81111561041d5761041c61037e565b5b61042985828601610392565b92509250509250929050565b60008115159050919050565b61044a81610435565b82525050565b600081519050919050565b600082825260208201905092915050565b60005b8381101561048a57808201518184015260208101905061046f565b60008484015250505050565b6000601f19601f8301169050919050565b60006104b282610450565b6104bc818561045b565b93506104cc81856020860161046c565b6104d581610496565b840191505092915050565b60006040820190506104f56000830185610441565b818103602083015261050781846104a7565b90509392505050565b7f4e487b7100000000000000000000000000000000000000000000000000000000600052601160045260246000fd5b600061054a826102ab565b9150610555836102ab565b925082820390508181111561056d5761056c610510565b5b92915050565b600061057e826102ab565b91507fffffffffffffffffffffffffffffffffffffffffffffffffffffffffffffffff82036105b0576105af610510565b5b60018201905091905056fea2646970667358221220641cc00a2da22efbac9e60e1454779f400a5d4a21318d64ab911fc23f3a8727b64736f6c63430008180033",
  "linkReferences": {},
  "deployedLinkReferences": {}
}